{
  "address": "0x9d98f4b0137275Ed518A87168555f352f6B73850",
  "abi": [
    {
      "inputs": [
        {
          "internalType": "address",
          "name": "_owner",
          "type": "address"
        },
        {
          "internalType": "address",
          "name": "_routerAddress",
          "type": "address"
        },
        {
          "internalType": "address",
          "name": "_stratosphereAddress",
          "type": "address"
        },
        {
          "internalType": "address[]",
          "name": "_whitelist",
          "type": "address[]"
        }
      ],
      "stateMutability": "nonpayable",
      "type": "constructor"
    },
    {
      "inputs": [],
      "name": "LiquidityStillLocked",
      "type": "error"
    },
    {
      "inputs": [
        {
          "internalType": "address",
          "name": "owner",
          "type": "address"
        }
      ],
      "name": "OwnableInvalidOwner",
      "type": "error"
    },
    {
      "inputs": [
        {
          "internalType": "address",
          "name": "account",
          "type": "address"
        }
      ],
      "name": "OwnableUnauthorizedAccount",
      "type": "error"
    },
    {
      "inputs": [],
      "name": "Unauthorized",
      "type": "error"
    },
    {
      "inputs": [],
      "name": "WrongConstructorArguments",
      "type": "error"
    },
    {
      "inputs": [],
      "name": "ZeroAddress",
      "type": "error"
    },
    {
      "anonymous": false,
      "inputs": [
        {
          "indexed": true,
          "internalType": "address",
          "name": "_pairAddress",
          "type": "address"
        },
        {
          "indexed": true,
          "internalType": "address",
          "name": "_to",
          "type": "address"
        }
      ],
      "name": "LiquidityTransferred",
      "type": "event"
    },
    {
      "anonymous": false,
      "inputs": [
        {
          "indexed": true,
          "internalType": "address",
          "name": "_pairAddress",
          "type": "address"
        },
        {
          "indexed": true,
          "internalType": "address",
          "name": "_to",
          "type": "address"
        }
      ],
      "name": "LiquidityUnlocked",
      "type": "event"
    },
    {
      "anonymous": false,
      "inputs": [
        {
          "indexed": true,
          "internalType": "address",
          "name": "previousOwner",
          "type": "address"
        },
        {
          "indexed": true,
          "internalType": "address",
          "name": "newOwner",
          "type": "address"
        }
      ],
      "name": "OwnershipTransferred",
      "type": "event"
    },
    {
      "anonymous": false,
      "inputs": [
        {
          "indexed": true,
          "internalType": "address",
          "name": "_tokenAddress",
          "type": "address"
        },
        {
          "indexed": true,
          "internalType": "address",
          "name": "_pairAddress",
          "type": "address"
        }
      ],
      "name": "TokenLaunched",
      "type": "event"
    },
    {
      "inputs": [],
      "name": "WETH",
      "outputs": [
        {
          "internalType": "address",
          "name": "",
          "type": "address"
        }
      ],
      "stateMutability": "view",
      "type": "function"
    },
    {
      "inputs": [],
      "name": "factory",
      "outputs": [
        {
          "internalType": "address",
          "name": "",
          "type": "address"
        }
      ],
      "stateMutability": "view",
      "type": "function"
    },
    {
      "inputs": [
        {
          "internalType": "string",
          "name": "_name",
          "type": "string"
        },
        {
          "internalType": "string",
          "name": "_symbol",
          "type": "string"
        },
        {
          "internalType": "uint256",
          "name": "_totalSupply",
          "type": "uint256"
        },
        {
          "internalType": "uint256",
          "name": "_releaseTime",
          "type": "uint256"
        }
      ],
      "name": "launch",
      "outputs": [
        {
          "internalType": "address",
          "name": "_pair",
          "type": "address"
        },
        {
          "internalType": "address",
          "name": "_tokenAddress",
          "type": "address"
        }
      ],
      "stateMutability": "payable",
      "type": "function"
    },
    {
      "inputs": [],
      "name": "owner",
      "outputs": [
        {
          "internalType": "address",
          "name": "",
          "type": "address"
        }
      ],
      "stateMutability": "view",
      "type": "function"
    },
    {
      "inputs": [],
      "name": "renounceOwnership",
      "outputs": [],
      "stateMutability": "nonpayable",
      "type": "function"
    },
    {
      "inputs": [],
      "name": "router",
      "outputs": [
        {
          "internalType": "address",
          "name": "",
          "type": "address"
        }
      ],
      "stateMutability": "view",
      "type": "function"
    },
    {
      "inputs": [],
      "name": "stratosphere",
      "outputs": [
        {
          "internalType": "address",
          "name": "",
          "type": "address"
        }
      ],
      "stateMutability": "view",
      "type": "function"
    },
    {
      "inputs": [
        {
          "internalType": "address",
          "name": "_pair",
          "type": "address"
        },
        {
          "internalType": "address",
          "name": "_to",
          "type": "address"
        }
      ],
      "name": "transferLock",
      "outputs": [],
      "stateMutability": "nonpayable",
      "type": "function"
    },
    {
      "inputs": [
        {
          "internalType": "address",
          "name": "newOwner",
          "type": "address"
        }
      ],
      "name": "transferOwnership",
      "outputs": [],
      "stateMutability": "nonpayable",
      "type": "function"
    },
    {
      "inputs": [
        {
          "internalType": "address",
          "name": "_pair",
          "type": "address"
        },
        {
          "internalType": "address",
          "name": "_to",
          "type": "address"
        }
      ],
      "name": "unlockLiquidity",
      "outputs": [],
      "stateMutability": "nonpayable",
      "type": "function"
    },
    {
      "inputs": [
        {
          "internalType": "uint256",
          "name": "",
          "type": "uint256"
        }
      ],
      "name": "whitelist",
      "outputs": [
        {
          "internalType": "address",
          "name": "",
          "type": "address"
        }
      ],
      "stateMutability": "view",
      "type": "function"
    }
  ],
  "transactionHash": "0x33e71ada33d3f3138c3b4d0578e6e2c7dca7469ab1802b35fe3b52d9e4222eed",
  "args": [
    "0xCf00c1ac6D26d52054ec89bE6e093F2E270D61d9",
    "0x19C0FC4562A4b76F27f86c676eF5a7e38D12a20d",
    "0x65eB37AeB1F2a9cE39556F80044607dD969b0336",
    [
      "0x184eaB8D97cE56Cf77e2571e8f1D6F697076a831",
      "0x3F1aF4D92c91511A0BCe4B21bc256bF63bcab470"
    ]
  ],
  "numDeployments": 1,
  "solcInputHash": "434b469d2a5b3cf7f401f4d795acc908",
  "bytecode": "0x6101006040523480156200001257600080fd5b5060405162005d7338038062005d738339818101604052810190620000389190620006d3565b83600073ffffffffffffffffffffffffffffffffffffffff168173ffffffffffffffffffffffffffffffffffffffff1603620000ae5760006040517f1e4fbdf7000000000000000000000000000000000000000000000000000000008152600401620000a5919062000775565b60405180910390fd5b620000bf816200037360201b60201c565b50600073ffffffffffffffffffffffffffffffffffffffff168473ffffffffffffffffffffffffffffffffffffffff161480620001285750600073ffffffffffffffffffffffffffffffffffffffff168373ffffffffffffffffffffffffffffffffffffffff16145b80620001605750600073ffffffffffffffffffffffffffffffffffffffff168273ffffffffffffffffffffffffffffffffffffffff16145b1562000198576040517f432990fa00000000000000000000000000000000000000000000000000000000815260040160405180910390fd5b8273ffffffffffffffffffffffffffffffffffffffff1660a08173ffffffffffffffffffffffffffffffffffffffff168152505060008390508073ffffffffffffffffffffffffffffffffffffffff1663c45a01556040518163ffffffff1660e01b8152600401602060405180830381865afa1580156200021d573d6000803e3d6000fd5b505050506040513d601f19601f8201168201806040525081019062000243919062000792565b73ffffffffffffffffffffffffffffffffffffffff1660808173ffffffffffffffffffffffffffffffffffffffff16815250508073ffffffffffffffffffffffffffffffffffffffff1663ad5c46486040518163ffffffff1660e01b8152600401602060405180830381865afa158015620002c2573d6000803e3d6000fd5b505050506040513d601f19601f82011682018060405250810190620002e8919062000792565b73ffffffffffffffffffffffffffffffffffffffff1660c08173ffffffffffffffffffffffffffffffffffffffff16815250508273ffffffffffffffffffffffffffffffffffffffff1660e08173ffffffffffffffffffffffffffffffffffffffff168152505081600190805190602001906200036792919062000437565b505050505050620007c4565b60008060009054906101000a900473ffffffffffffffffffffffffffffffffffffffff169050816000806101000a81548173ffffffffffffffffffffffffffffffffffffffff021916908373ffffffffffffffffffffffffffffffffffffffff1602179055508173ffffffffffffffffffffffffffffffffffffffff168173ffffffffffffffffffffffffffffffffffffffff167f8be0079c531659141344cd1fd0a4f28419497f9722a3daafe3b4186f6b6457e060405160405180910390a35050565b828054828255906000526020600020908101928215620004b3579160200282015b82811115620004b25782518260006101000a81548173ffffffffffffffffffffffffffffffffffffffff021916908373ffffffffffffffffffffffffffffffffffffffff1602179055509160200191906001019062000458565b5b509050620004c29190620004c6565b5090565b5b80821115620004e1576000816000905550600101620004c7565b5090565b6000604051905090565b600080fd5b600080fd5b600073ffffffffffffffffffffffffffffffffffffffff82169050919050565b60006200052682620004f9565b9050919050565b620005388162000519565b81146200054457600080fd5b50565b60008151905062000558816200052d565b92915050565b600080fd5b6000601f19601f8301169050919050565b7f4e487b7100000000000000000000000000000000000000000000000000000000600052604160045260246000fd5b620005ae8262000563565b810181811067ffffffffffffffff82111715620005d057620005cf62000574565b5b80604052505050565b6000620005e5620004e5565b9050620005f38282620005a3565b919050565b600067ffffffffffffffff82111562000616576200061562000574565b5b602082029050602081019050919050565b600080fd5b6000620006436200063d84620005f8565b620005d9565b9050808382526020820190506020840283018581111562000669576200066862000627565b5b835b8181101562000696578062000681888262000547565b8452602084019350506020810190506200066b565b5050509392505050565b600082601f830112620006b857620006b76200055e565b5b8151620006ca8482602086016200062c565b91505092915050565b60008060008060808587031215620006f057620006ef620004ef565b5b6000620007008782880162000547565b9450506020620007138782880162000547565b9350506040620007268782880162000547565b925050606085015167ffffffffffffffff8111156200074a5762000749620004f4565b5b6200075887828801620006a0565b91505092959194509250565b6200076f8162000519565b82525050565b60006020820190506200078c600083018462000764565b92915050565b600060208284031215620007ab57620007aa620004ef565b5b6000620007bb8482850162000547565b91505092915050565b60805160a05160c05160e05161555262000821600039600081816102c00152610e0d0152600081816103fc0152610d0f0152600081816102fe01528181610de40152610e8e0152600081816103bf0152610d3301526155526000f3fe608060405260043610620000aa5760003560e01c80638da5cb5b116200006d5780638da5cb5b14620001a25780639e5e366a14620001d2578063ad5c46481462000200578063c45a01551462000230578063f2fde38b1462000260578063f887ea40146200028e57620000aa565b806345d8184314620000af5780634c432b5814620000df5780635caab6be1462000116578063715018a614620001445780637ebd1b30146200015e575b600080fd5b348015620000bc57600080fd5b50620000c7620002be565b604051620000d69190620010cb565b60405180910390f35b620000fd6004803603810190620000f7919062001299565b620002e2565b6040516200010d92919062001349565b60405180910390f35b3480156200012357600080fd5b506200014260048036038101906200013c9190620013a7565b620006e8565b005b3480156200015157600080fd5b506200015c62000895565b005b3480156200016b57600080fd5b506200018a6004803603810190620001849190620013ee565b620008ad565b604051620001999190620010cb565b60405180910390f35b348015620001af57600080fd5b50620001ba620008ed565b604051620001c99190620010cb565b60405180910390f35b348015620001df57600080fd5b50620001fe6004803603810190620001f89190620013a7565b62000916565b005b3480156200020d57600080fd5b506200021862000d0d565b604051620002279190620010cb565b60405180910390f35b3480156200023d57600080fd5b506200024862000d31565b604051620002579190620010cb565b60405180910390f35b3480156200026d57600080fd5b506200028c600480360381019062000286919062001420565b62000d55565b005b3480156200029b57600080fd5b50620002a662000de2565b604051620002b59190620010cb565b60405180910390f35b7f000000000000000000000000000000000000000000000000000000000000000081565b6000806000620002f58787878762000e06565b905080915060007f000000000000000000000000000000000000000000000000000000000000000090508073ffffffffffffffffffffffffffffffffffffffff1663f305d7193485898a34306102584262000351919062001481565b6040518863ffffffff1660e01b81526004016200037496959493929190620014cd565b60606040518083038185885af115801562000393573d6000803e3d6000fd5b50505050506040513d601f19601f82011682018060405250810190620003ba919062001551565b5050507f000000000000000000000000000000000000000000000000000000000000000073ffffffffffffffffffffffffffffffffffffffff1663e6a43905847f00000000000000000000000000000000000000000000000000000000000000006040518363ffffffff1660e01b81526004016200043a92919062001349565b602060405180830381865afa15801562000458573d6000803e3d6000fd5b505050506040513d601f19601f820116820180604052508101906200047e9190620015c4565b93508173ffffffffffffffffffffffffffffffffffffffff166301877020856040518263ffffffff1660e01b8152600401620004bb9190620010cb565b600060405180830381600087803b158015620004d657600080fd5b505af1158015620004eb573d6000803e3d6000fd5b505050508173ffffffffffffffffffffffffffffffffffffffff1663715018a66040518163ffffffff1660e01b8152600401600060405180830381600087803b1580156200053857600080fd5b505af11580156200054d573d6000803e3d6000fd5b5050505060405180606001604052803373ffffffffffffffffffffffffffffffffffffffff1681526020018573ffffffffffffffffffffffffffffffffffffffff1681526020016301e1338042620005a6919062001481565b815250600260008673ffffffffffffffffffffffffffffffffffffffff1673ffffffffffffffffffffffffffffffffffffffff16815260200190815260200160002060008201518160000160006101000a81548173ffffffffffffffffffffffffffffffffffffffff021916908373ffffffffffffffffffffffffffffffffffffffff16021790555060208201518160010160006101000a81548173ffffffffffffffffffffffffffffffffffffffff021916908373ffffffffffffffffffffffffffffffffffffffff160217905550604082015181600201559050508373ffffffffffffffffffffffffffffffffffffffff168373ffffffffffffffffffffffffffffffffffffffff167fab3e0ae7b7d4c37d3539a4f3e3ac856a540af410acce171c797bbf88c1853b2d60405160405180910390a3505094509492505050565b6000600260008473ffffffffffffffffffffffffffffffffffffffff1673ffffffffffffffffffffffffffffffffffffffff16815260200190815260200160002060000160009054906101000a900473ffffffffffffffffffffffffffffffffffffffff1690508073ffffffffffffffffffffffffffffffffffffffff163373ffffffffffffffffffffffffffffffffffffffff1614620007b5576040517f82b4290000000000000000000000000000000000000000000000000000000000815260040160405180910390fd5b81600260008573ffffffffffffffffffffffffffffffffffffffff1673ffffffffffffffffffffffffffffffffffffffff16815260200190815260200160002060000160006101000a81548173ffffffffffffffffffffffffffffffffffffffff021916908373ffffffffffffffffffffffffffffffffffffffff1602179055508173ffffffffffffffffffffffffffffffffffffffff168373ffffffffffffffffffffffffffffffffffffffff167f41f8af339a1fd0d4ed41d2aec5c89989b96536e24958255ed584080bb2c1623160405160405180910390a3505050565b6200089f62000f1c565b620008ab600062000fac565b565b60018181548110620008be57600080fd5b906000526020600020016000915054906101000a900473ffffffffffffffffffffffffffffffffffffffff1681565b60008060009054906101000a900473ffffffffffffffffffffffffffffffffffffffff16905090565b42600260008473ffffffffffffffffffffffffffffffffffffffff1673ffffffffffffffffffffffffffffffffffffffff16815260200190815260200160002060020154111562000993576040517fbdcf71ae00000000000000000000000000000000000000000000000000000000815260040160405180910390fd5b3373ffffffffffffffffffffffffffffffffffffffff16600260008473ffffffffffffffffffffffffffffffffffffffff1673ffffffffffffffffffffffffffffffffffffffff16815260200190815260200160002060000160009054906101000a900473ffffffffffffffffffffffffffffffffffffffff1673ffffffffffffffffffffffffffffffffffffffff161462000a5b576040517f82b4290000000000000000000000000000000000000000000000000000000000815260040160405180910390fd5b6000600260008473ffffffffffffffffffffffffffffffffffffffff1673ffffffffffffffffffffffffffffffffffffffff16815260200190815260200160002060000160006101000a81548173ffffffffffffffffffffffffffffffffffffffff021916908373ffffffffffffffffffffffffffffffffffffffff1602179055506000600260008473ffffffffffffffffffffffffffffffffffffffff1673ffffffffffffffffffffffffffffffffffffffff16815260200190815260200160002060010160006101000a81548173ffffffffffffffffffffffffffffffffffffffff021916908373ffffffffffffffffffffffffffffffffffffffff1602179055506000600260008473ffffffffffffffffffffffffffffffffffffffff1673ffffffffffffffffffffffffffffffffffffffff1681526020019081526020016000206002018190555060008290508073ffffffffffffffffffffffffffffffffffffffff1663a9059cbb838373ffffffffffffffffffffffffffffffffffffffff166370a08231306040518263ffffffff1660e01b815260040162000c049190620010cb565b602060405180830381865afa15801562000c22573d6000803e3d6000fd5b505050506040513d601f19601f8201168201806040525081019062000c489190620015f6565b6040518363ffffffff1660e01b815260040162000c6792919062001628565b6020604051808303816000875af115801562000c87573d6000803e3d6000fd5b505050506040513d601f19601f8201168201806040525081019062000cad919062001692565b508173ffffffffffffffffffffffffffffffffffffffff168373ffffffffffffffffffffffffffffffffffffffff167ffe96c81c48e39035c6e8009a9b1089e8c7a168b29219e979a16351116d080b7b60405160405180910390a3505050565b7f000000000000000000000000000000000000000000000000000000000000000081565b7f000000000000000000000000000000000000000000000000000000000000000081565b62000d5f62000f1c565b600073ffffffffffffffffffffffffffffffffffffffff168173ffffffffffffffffffffffffffffffffffffffff160362000dd45760006040517f1e4fbdf700000000000000000000000000000000000000000000000000000000815260040162000dcb9190620010cb565b60405180910390fd5b62000ddf8162000fac565b50565b7f000000000000000000000000000000000000000000000000000000000000000081565b60008484847f00000000000000000000000000000000000000000000000000000000000000003086600160405162000e3e9062001078565b62000e50979695949392919062001889565b604051809103906000f08015801562000e6d573d6000803e3d6000fd5b5090508073ffffffffffffffffffffffffffffffffffffffff1663095ea7b37f0000000000000000000000000000000000000000000000000000000000000000856040518363ffffffff1660e01b815260040162000ecd92919062001628565b6020604051808303816000875af115801562000eed573d6000803e3d6000fd5b505050506040513d601f19601f8201168201806040525081019062000f13919062001692565b50949350505050565b62000f2662001070565b73ffffffffffffffffffffffffffffffffffffffff1662000f46620008ed565b73ffffffffffffffffffffffffffffffffffffffff161462000faa5762000f6c62001070565b6040517f118cdaa700000000000000000000000000000000000000000000000000000000815260040162000fa19190620010cb565b60405180910390fd5b565b60008060009054906101000a900473ffffffffffffffffffffffffffffffffffffffff169050816000806101000a81548173ffffffffffffffffffffffffffffffffffffffff021916908373ffffffffffffffffffffffffffffffffffffffff1602179055508173ffffffffffffffffffffffffffffffffffffffff168173ffffffffffffffffffffffffffffffffffffffff167f8be0079c531659141344cd1fd0a4f28419497f9722a3daafe3b4186f6b6457e060405160405180910390a35050565b600033905090565b613c01806200191c83390190565b600073ffffffffffffffffffffffffffffffffffffffff82169050919050565b6000620010b38262001086565b9050919050565b620010c581620010a6565b82525050565b6000602082019050620010e26000830184620010ba565b92915050565b6000604051905090565b600080fd5b600080fd5b600080fd5b600080fd5b6000601f19601f8301169050919050565b7f4e487b7100000000000000000000000000000000000000000000000000000000600052604160045260246000fd5b620011518262001106565b810181811067ffffffffffffffff8211171562001173576200117262001117565b5b80604052505050565b600062001188620010e8565b905062001196828262001146565b919050565b600067ffffffffffffffff821115620011b957620011b862001117565b5b620011c48262001106565b9050602081019050919050565b82818337600083830152505050565b6000620011f7620011f1846200119b565b6200117c565b90508281526020810184848401111562001216576200121562001101565b5b62001223848285620011d1565b509392505050565b600082601f830112620012435762001242620010fc565b5b813562001255848260208601620011e0565b91505092915050565b6000819050919050565b62001273816200125e565b81146200127f57600080fd5b50565b600081359050620012938162001268565b92915050565b60008060008060808587031215620012b657620012b5620010f2565b5b600085013567ffffffffffffffff811115620012d757620012d6620010f7565b5b620012e5878288016200122b565b945050602085013567ffffffffffffffff811115620013095762001308620010f7565b5b62001317878288016200122b565b93505060406200132a8782880162001282565b92505060606200133d8782880162001282565b91505092959194509250565b6000604082019050620013606000830185620010ba565b6200136f6020830184620010ba565b9392505050565b6200138181620010a6565b81146200138d57600080fd5b50565b600081359050620013a18162001376565b92915050565b60008060408385031215620013c157620013c0620010f2565b5b6000620013d18582860162001390565b9250506020620013e48582860162001390565b9150509250929050565b600060208284031215620014075762001406620010f2565b5b6000620014178482850162001282565b91505092915050565b600060208284031215620014395762001438620010f2565b5b6000620014498482850162001390565b91505092915050565b7f4e487b7100000000000000000000000000000000000000000000000000000000600052601160045260246000fd5b60006200148e826200125e565b91506200149b836200125e565b9250828201905080821115620014b657620014b562001452565b5b92915050565b620014c7816200125e565b82525050565b600060c082019050620014e46000830189620010ba565b620014f36020830188620014bc565b620015026040830187620014bc565b620015116060830186620014bc565b620015206080830185620010ba565b6200152f60a0830184620014bc565b979650505050505050565b6000815190506200154b8162001268565b92915050565b6000806000606084860312156200156d576200156c620010f2565b5b60006200157d868287016200153a565b935050602062001590868287016200153a565b9250506040620015a3868287016200153a565b9150509250925092565b600081519050620015be8162001376565b92915050565b600060208284031215620015dd57620015dc620010f2565b5b6000620015ed84828501620015ad565b91505092915050565b6000602082840312156200160f576200160e620010f2565b5b60006200161f848285016200153a565b91505092915050565b60006040820190506200163f6000830185620010ba565b6200164e6020830184620014bc565b9392505050565b60008115159050919050565b6200166c8162001655565b81146200167857600080fd5b50565b6000815190506200168c8162001661565b92915050565b600060208284031215620016ab57620016aa620010f2565b5b6000620016bb848285016200167b565b91505092915050565b600081519050919050565b600082825260208201905092915050565b60005b8381101562001700578082015181840152602081019050620016e3565b60008484015250505050565b60006200171982620016c4565b620017258185620016cf565b935062001737818560208601620016e0565b620017428162001106565b840191505092915050565b600081549050919050565b600082825260208201905092915050565b60008190508160005260206000209050919050565b6200178981620010a6565b82525050565b60006200179d83836200177e565b60208301905092915050565b60008160001c9050919050565b600073ffffffffffffffffffffffffffffffffffffffff82169050919050565b6000620017ed620017e783620017a9565b620017b6565b9050919050565b6000620018028254620017d6565b9050919050565b6000600182019050919050565b600062001823826200174d565b6200182f818562001758565b93506200183c8362001769565b8060005b838110156200187c576200185482620017f4565b6200186088826200178f565b97506200186d8362001809565b92505060018101905062001840565b5085935050505092915050565b600060e0820190508181036000830152620018a5818a6200170c565b90508181036020830152620018bb81896200170c565b9050620018cc6040830188620014bc565b620018db6060830187620010ba565b620018ea6080830186620010ba565b620018f960a0830185620014bc565b81810360c08301526200190d818462001816565b90509897505050505050505056fe6101c06040523480156200001257600080fd5b5060405162003c0138038062003c01833981810160405281019062000038919062000e36565b8287806040518060400160405280600181526020017f31000000000000000000000000000000000000000000000000000000000000008152508a8a816003908162000084919062001187565b50806004908162000096919062001187565b505050620000af6005836200032e60201b90919060201c565b6101208181525050620000cd6006826200032e60201b90919060201c565b6101408181525050818051906020012060e08181525050808051906020012061010081815250504660a081815250506200010c6200038660201b60201c565b608081815250503073ffffffffffffffffffffffffffffffffffffffff1660c08173ffffffffffffffffffffffffffffffffffffffff1681525050505050600073ffffffffffffffffffffffffffffffffffffffff168173ffffffffffffffffffffffffffffffffffffffff1603620001bf5760006040517f1e4fbdf7000000000000000000000000000000000000000000000000000000008152600401620001b691906200127f565b60405180910390fd5b620001d081620003e360201b60201c565b506001600a60003373ffffffffffffffffffffffffffffffffffffffff1673ffffffffffffffffffffffffffffffffffffffff16815260200190815260200160002060006101000a81548160ff0219169083151502179055508373ffffffffffffffffffffffffffffffffffffffff166101a08173ffffffffffffffffffffffffffffffffffffffff1681525050620002703386620004a960201b60201c565b6064856200027f9190620012fa565b610160818152505081610180818152505060005b815181101562000320576001600a6000848481518110620002b957620002b862001332565b5b602002602001015173ffffffffffffffffffffffffffffffffffffffff1673ffffffffffffffffffffffffffffffffffffffff16815260200190815260200160002060006101000a81548160ff021916908315150217905550808060010191505062000293565b505050505050505062001604565b600060208351101562000354576200034c836200053660201b60201c565b905062000380565b826200036683620005a360201b60201c565b600001908162000377919062001187565b5060ff60001b90505b92915050565b60007f8b73c3c69bb8fe3d512ecc4cf759cc79239f7b179b0ffacaa9a75d522b39400f60e051610100514630604051602001620003c89594939291906200138d565b60405160208183030381529060405280519060200120905090565b6000600860009054906101000a900473ffffffffffffffffffffffffffffffffffffffff16905081600860006101000a81548173ffffffffffffffffffffffffffffffffffffffff021916908373ffffffffffffffffffffffffffffffffffffffff1602179055508173ffffffffffffffffffffffffffffffffffffffff168173ffffffffffffffffffffffffffffffffffffffff167f8be0079c531659141344cd1fd0a4f28419497f9722a3daafe3b4186f6b6457e060405160405180910390a35050565b600073ffffffffffffffffffffffffffffffffffffffff168273ffffffffffffffffffffffffffffffffffffffff16036200051e5760006040517fec442f050000000000000000000000000000000000000000000000000000000081526004016200051591906200127f565b60405180910390fd5b6200053260008383620005ad60201b60201c565b5050565b600080829050601f815111156200058657826040517f305a27a90000000000000000000000000000000000000000000000000000000081526004016200057d91906200143c565b60405180910390fd5b805181620005949062001492565b60001c1760001b915050919050565b6000819050919050565b620005c08383836200073560201b60201c565b60006101805190508042101562000603576040517facf75be800000000000000000000000000000000000000000000000000000000815260040160405180910390fd5b6000814262000613919062001502565b9050620151808111156200062957505062000730565b600a60008673ffffffffffffffffffffffffffffffffffffffff1673ffffffffffffffffffffffffffffffffffffffff16815260200190815260200160002060009054906101000a900460ff1680620006cb5750600a60008573ffffffffffffffffffffffffffffffffffffffff1673ffffffffffffffffffffffffffffffffffffffff16815260200190815260200160002060009054906101000a900460ff165b15620006d957505062000730565b610e108110156200070d57620006f5846200096560201b60201c565b62000707848462000a2460201b60201c565b6200072d565b620151808110156200072c576200072b848462000a2460201b60201c565b5b5b50505b505050565b600073ffffffffffffffffffffffffffffffffffffffff168373ffffffffffffffffffffffffffffffffffffffff16036200078b5780600260008282546200077e91906200153d565b9250508190555062000861565b60008060008573ffffffffffffffffffffffffffffffffffffffff1673ffffffffffffffffffffffffffffffffffffffff168152602001908152602001600020549050818110156200081a578381836040517fe450d38c000000000000000000000000000000000000000000000000000000008152600401620008119392919062001578565b60405180910390fd5b8181036000808673ffffffffffffffffffffffffffffffffffffffff1673ffffffffffffffffffffffffffffffffffffffff16815260200190815260200160002081905550505b600073ffffffffffffffffffffffffffffffffffffffff168273ffffffffffffffffffffffffffffffffffffffff1603620008ac5780600260008282540392505081905550620008f9565b806000808473ffffffffffffffffffffffffffffffffffffffff1673ffffffffffffffffffffffffffffffffffffffff168152602001908152602001600020600082825401925050819055505b8173ffffffffffffffffffffffffffffffffffffffff168373ffffffffffffffffffffffffffffffffffffffff167fddf252ad1be2c89b69c2b068fc378daa952ba7f163c4a11628f55a4df523b3ef83604051620009589190620015b5565b60405180910390a3505050565b60006101a05173ffffffffffffffffffffffffffffffffffffffff166370a08231836040518263ffffffff1660e01b8152600401620009a591906200127f565b602060405180830381865afa158015620009c3573d6000803e3d6000fd5b505050506040513d601f19601f82011682018060405250810190620009e99190620015d2565b0362000a21576040517ffd895c2800000000000000000000000000000000000000000000000000000000815260040160405180910390fd5b50565b600960009054906101000a900473ffffffffffffffffffffffffffffffffffffffff1673ffffffffffffffffffffffffffffffffffffffff168273ffffffffffffffffffffffffffffffffffffffff161462000adc5760008162000a8e8462000ae060201b60201c565b62000a9a91906200153d565b90506101605181111562000ada576040517ff29d2a0e00000000000000000000000000000000000000000000000000000000815260040160405180910390fd5b505b5050565b60008060008373ffffffffffffffffffffffffffffffffffffffff1673ffffffffffffffffffffffffffffffffffffffff168152602001908152602001600020549050919050565b6000604051905090565b600080fd5b600080fd5b600080fd5b600080fd5b6000601f19601f8301169050919050565b7f4e487b7100000000000000000000000000000000000000000000000000000000600052604160045260246000fd5b62000b918262000b46565b810181811067ffffffffffffffff8211171562000bb35762000bb262000b57565b5b80604052505050565b600062000bc862000b28565b905062000bd6828262000b86565b919050565b600067ffffffffffffffff82111562000bf95762000bf862000b57565b5b62000c048262000b46565b9050602081019050919050565b60005b8381101562000c3157808201518184015260208101905062000c14565b60008484015250505050565b600062000c5462000c4e8462000bdb565b62000bbc565b90508281526020810184848401111562000c735762000c7262000b41565b5b62000c8084828562000c11565b509392505050565b600082601f83011262000ca05762000c9f62000b3c565b5b815162000cb284826020860162000c3d565b91505092915050565b6000819050919050565b62000cd08162000cbb565b811462000cdc57600080fd5b50565b60008151905062000cf08162000cc5565b92915050565b600073ffffffffffffffffffffffffffffffffffffffff82169050919050565b600062000d238262000cf6565b9050919050565b62000d358162000d16565b811462000d4157600080fd5b50565b60008151905062000d558162000d2a565b92915050565b600067ffffffffffffffff82111562000d795762000d7862000b57565b5b602082029050602081019050919050565b600080fd5b600062000da662000da08462000d5b565b62000bbc565b9050808382526020820190506020840283018581111562000dcc5762000dcb62000d8a565b5b835b8181101562000df9578062000de4888262000d44565b84526020840193505060208101905062000dce565b5050509392505050565b600082601f83011262000e1b5762000e1a62000b3c565b5b815162000e2d84826020860162000d8f565b91505092915050565b600080600080600080600060e0888a03121562000e585762000e5762000b32565b5b600088015167ffffffffffffffff81111562000e795762000e7862000b37565b5b62000e878a828b0162000c88565b975050602088015167ffffffffffffffff81111562000eab5762000eaa62000b37565b5b62000eb98a828b0162000c88565b965050604062000ecc8a828b0162000cdf565b955050606062000edf8a828b0162000d44565b945050608062000ef28a828b0162000d44565b93505060a062000f058a828b0162000cdf565b92505060c088015167ffffffffffffffff81111562000f295762000f2862000b37565b5b62000f378a828b0162000e03565b91505092959891949750929550565b600081519050919050565b7f4e487b7100000000000000000000000000000000000000000000000000000000600052602260045260246000fd5b6000600282049050600182168062000f9957607f821691505b60208210810362000faf5762000fae62000f51565b5b50919050565b60008190508160005260206000209050919050565b60006020601f8301049050919050565b600082821b905092915050565b600060088302620010197fffffffffffffffffffffffffffffffffffffffffffffffffffffffffffffffff8262000fda565b62001025868362000fda565b95508019841693508086168417925050509392505050565b6000819050919050565b600062001068620010626200105c8462000cbb565b6200103d565b62000cbb565b9050919050565b6000819050919050565b620010848362001047565b6200109c62001093826200106f565b84845462000fe7565b825550505050565b600090565b620010b3620010a4565b620010c081848462001079565b505050565b5b81811015620010e857620010dc600082620010a9565b600181019050620010c6565b5050565b601f8211156200113757620011018162000fb5565b6200110c8462000fca565b810160208510156200111c578190505b620011346200112b8562000fca565b830182620010c5565b50505b505050565b600082821c905092915050565b60006200115c600019846008026200113c565b1980831691505092915050565b600062001177838362001149565b9150826002028217905092915050565b620011928262000f46565b67ffffffffffffffff811115620011ae57620011ad62000b57565b5b620011ba825462000f80565b620011c7828285620010ec565b600060209050601f831160018114620011ff5760008415620011ea578287015190505b620011f6858262001169565b86555062001266565b601f1984166200120f8662000fb5565b60005b82811015620012395784890151825560018201915060208501945060208101905062001212565b8683101562001259578489015162001255601f89168262001149565b8355505b6001600288020188555050505b505050505050565b620012798162000d16565b82525050565b60006020820190506200129660008301846200126e565b92915050565b7f4e487b7100000000000000000000000000000000000000000000000000000000600052601260045260246000fd5b7f4e487b7100000000000000000000000000000000000000000000000000000000600052601160045260246000fd5b6000620013078262000cbb565b9150620013148362000cbb565b9250826200132757620013266200129c565b5b828204905092915050565b7f4e487b7100000000000000000000000000000000000000000000000000000000600052603260045260246000fd5b6000819050919050565b620013768162001361565b82525050565b620013878162000cbb565b82525050565b600060a082019050620013a460008301886200136b565b620013b360208301876200136b565b620013c260408301866200136b565b620013d160608301856200137c565b620013e060808301846200126e565b9695505050505050565b600082825260208201905092915050565b6000620014088262000f46565b620014148185620013ea565b93506200142681856020860162000c11565b620014318162000b46565b840191505092915050565b60006020820190508181036000830152620014588184620013fb565b905092915050565b600081519050919050565b6000819050602082019050919050565b600062001489825162001361565b80915050919050565b60006200149f8262001460565b82620014ab846200146b565b9050620014b8816200147b565b92506020821015620014fb57620014f67fffffffffffffffffffffffffffffffffffffffffffffffffffffffffffffffff8360200360080262000fda565b831692505b5050919050565b60006200150f8262000cbb565b91506200151c8362000cbb565b9250828203905081811115620015375762001536620012cb565b5b92915050565b60006200154a8262000cbb565b9150620015578362000cbb565b9250828201905080821115620015725762001571620012cb565b5b92915050565b60006060820190506200158f60008301866200126e565b6200159e60208301856200137c565b620015ad60408301846200137c565b949350505050565b6000602082019050620015cc60008301846200137c565b92915050565b600060208284031215620015eb57620015ea62000b32565b5b6000620015fb8482850162000cdf565b91505092915050565b60805160a05160c05160e05161010051610120516101405161016051610180516101a05161256c620016956000396000818161065701526119b2015260008181610b31015261123f0152600081816107b90152611af301526000610f8601526000610f4b015260006113f0015260006113cf01526000610d8001526000610dd601526000610dff015261256c6000f3fe608060405234801561001057600080fd5b50600436106101425760003560e01c80637ecebe00116100b85780639b19251a1161007c5780639b19251a1461035f578063a9059cbb1461038f578063d505accf146103bf578063dd62ed3e146103db578063f2fde38b1461040b578063fe4c4af41461042757610142565b80637ecebe00146102b157806384b0196e146102e157806389f9a1d3146103055780638da5cb5b1461032357806395d89b411461034157610142565b8063313ce5671161010a578063313ce567146101ff5780633644e5151461021d57806345d818431461023b578063665a11ca1461025957806370a0823114610277578063715018a6146102a757610142565b8063018770201461014757806306fdde0314610163578063095ea7b31461018157806318160ddd146101b157806323b872dd146101cf575b600080fd5b610161600480360381019061015c9190611c78565b610445565b005b61016b61054f565b6040516101789190611d35565b60405180910390f35b61019b60048036038101906101969190611d8d565b6105e1565b6040516101a89190611de8565b60405180910390f35b6101b9610604565b6040516101c69190611e12565b60405180910390f35b6101e960048036038101906101e49190611e2d565b61060e565b6040516101f69190611de8565b60405180910390f35b61020761063d565b6040516102149190611e9c565b60405180910390f35b610225610646565b6040516102329190611ed0565b60405180910390f35b610243610655565b6040516102509190611f4a565b60405180910390f35b610261610679565b60405161026e9190611f74565b60405180910390f35b610291600480360381019061028c9190611c78565b61069f565b60405161029e9190611e12565b60405180910390f35b6102af6106e7565b005b6102cb60048036038101906102c69190611c78565b6106fb565b6040516102d89190611e12565b60405180910390f35b6102e961070d565b6040516102fc9796959493929190612088565b60405180910390f35b61030d6107b7565b60405161031a9190611e12565b60405180910390f35b61032b6107db565b6040516103389190611f74565b60405180910390f35b610349610805565b6040516103569190611d35565b60405180910390f35b61037960048036038101906103749190611c78565b610897565b6040516103869190611de8565b60405180910390f35b6103a960048036038101906103a49190611d8d565b6108b7565b6040516103b69190611de8565b60405180910390f35b6103d960048036038101906103d49190612164565b6108da565b005b6103f560048036038101906103f09190612206565b610a22565b6040516104029190611e12565b60405180910390f35b61042560048036038101906104209190611c78565b610aa9565b005b61042f610b2f565b60405161043c9190611e12565b60405180910390f35b61044d610b53565b600073ffffffffffffffffffffffffffffffffffffffff168173ffffffffffffffffffffffffffffffffffffffff16036104b3576040517fc8a2211800000000000000000000000000000000000000000000000000000000815260040160405180910390fd5b80600960006101000a81548173ffffffffffffffffffffffffffffffffffffffff021916908373ffffffffffffffffffffffffffffffffffffffff1602179055506001600a60008373ffffffffffffffffffffffffffffffffffffffff1673ffffffffffffffffffffffffffffffffffffffff16815260200190815260200160002060006101000a81548160ff02191690831515021790555050565b60606003805461055e90612275565b80601f016020809104026020016040519081016040528092919081815260200182805461058a90612275565b80156105d75780601f106105ac576101008083540402835291602001916105d7565b820191906000526020600020905b8154815290600101906020018083116105ba57829003601f168201915b5050505050905090565b6000806105ec610bda565b90506105f9818585610be2565b600191505092915050565b6000600254905090565b600080610619610bda565b9050610626858285610bf4565b610631858585610c88565b60019150509392505050565b60006012905090565b6000610650610d7c565b905090565b7f000000000000000000000000000000000000000000000000000000000000000081565b600960009054906101000a900473ffffffffffffffffffffffffffffffffffffffff1681565b60008060008373ffffffffffffffffffffffffffffffffffffffff1673ffffffffffffffffffffffffffffffffffffffff168152602001908152602001600020549050919050565b6106ef610b53565b6106f96000610e33565b565b600061070682610ef9565b9050919050565b600060608060008060006060610721610f42565b610729610f7d565b46306000801b600067ffffffffffffffff81111561074a576107496122a6565b5b6040519080825280602002602001820160405280156107785781602001602082028036833780820191505090505b507f0f00000000000000000000000000000000000000000000000000000000000000959493929190965096509650965096509650965090919293949596565b7f000000000000000000000000000000000000000000000000000000000000000081565b6000600860009054906101000a900473ffffffffffffffffffffffffffffffffffffffff16905090565b60606004805461081490612275565b80601f016020809104026020016040519081016040528092919081815260200182805461084090612275565b801561088d5780601f106108625761010080835404028352916020019161088d565b820191906000526020600020905b81548152906001019060200180831161087057829003601f168201915b5050505050905090565b600a6020528060005260406000206000915054906101000a900460ff1681565b6000806108c2610bda565b90506108cf818585610c88565b600191505092915050565b8342111561091f57836040517f627913020000000000000000000000000000000000000000000000000000000081526004016109169190611e12565b60405180910390fd5b60007f6e71edae12b1b97f4d1f60370fef10105fa2faae0126114a169c64845d6126c988888861094e8c610fb8565b89604051602001610964969594939291906122d5565b60405160208183030381529060405280519060200120905060006109878261100f565b9050600061099782878787611029565b90508973ffffffffffffffffffffffffffffffffffffffff168173ffffffffffffffffffffffffffffffffffffffff1614610a0b57808a6040517f4b800e46000000000000000000000000000000000000000000000000000000008152600401610a02929190612336565b60405180910390fd5b610a168a8a8a610be2565b50505050505050505050565b6000600160008473ffffffffffffffffffffffffffffffffffffffff1673ffffffffffffffffffffffffffffffffffffffff16815260200190815260200160002060008373ffffffffffffffffffffffffffffffffffffffff1673ffffffffffffffffffffffffffffffffffffffff16815260200190815260200160002054905092915050565b610ab1610b53565b600073ffffffffffffffffffffffffffffffffffffffff168173ffffffffffffffffffffffffffffffffffffffff1603610b235760006040517f1e4fbdf7000000000000000000000000000000000000000000000000000000008152600401610b1a9190611f74565b60405180910390fd5b610b2c81610e33565b50565b7f000000000000000000000000000000000000000000000000000000000000000081565b610b5b610bda565b73ffffffffffffffffffffffffffffffffffffffff16610b796107db565b73ffffffffffffffffffffffffffffffffffffffff1614610bd857610b9c610bda565b6040517f118cdaa7000000000000000000000000000000000000000000000000000000008152600401610bcf9190611f74565b60405180910390fd5b565b600033905090565b610bef8383836001611059565b505050565b6000610c008484610a22565b90507fffffffffffffffffffffffffffffffffffffffffffffffffffffffffffffffff8114610c825781811015610c72578281836040517ffb8f41b2000000000000000000000000000000000000000000000000000000008152600401610c699392919061235f565b60405180910390fd5b610c8184848484036000611059565b5b50505050565b600073ffffffffffffffffffffffffffffffffffffffff168373ffffffffffffffffffffffffffffffffffffffff1603610cfa5760006040517f96c6fd1e000000000000000000000000000000000000000000000000000000008152600401610cf19190611f74565b60405180910390fd5b600073ffffffffffffffffffffffffffffffffffffffff168273ffffffffffffffffffffffffffffffffffffffff1603610d6c5760006040517fec442f05000000000000000000000000000000000000000000000000000000008152600401610d639190611f74565b60405180910390fd5b610d77838383611230565b505050565b60007f000000000000000000000000000000000000000000000000000000000000000073ffffffffffffffffffffffffffffffffffffffff163073ffffffffffffffffffffffffffffffffffffffff16148015610df857507f000000000000000000000000000000000000000000000000000000000000000046145b15610e25577f00000000000000000000000000000000000000000000000000000000000000009050610e30565b610e2d6113aa565b90505b90565b6000600860009054906101000a900473ffffffffffffffffffffffffffffffffffffffff16905081600860006101000a81548173ffffffffffffffffffffffffffffffffffffffff021916908373ffffffffffffffffffffffffffffffffffffffff1602179055508173ffffffffffffffffffffffffffffffffffffffff168173ffffffffffffffffffffffffffffffffffffffff167f8be0079c531659141344cd1fd0a4f28419497f9722a3daafe3b4186f6b6457e060405160405180910390a35050565b6000600760008373ffffffffffffffffffffffffffffffffffffffff1673ffffffffffffffffffffffffffffffffffffffff168152602001908152602001600020549050919050565b6060610f7860057f000000000000000000000000000000000000000000000000000000000000000061144090919063ffffffff16565b905090565b6060610fb360067f000000000000000000000000000000000000000000000000000000000000000061144090919063ffffffff16565b905090565b6000600760008373ffffffffffffffffffffffffffffffffffffffff1673ffffffffffffffffffffffffffffffffffffffff1681526020019081526020016000206000815480929190600101919050559050919050565b600061102261101c610d7c565b836114f0565b9050919050565b60008060008061103b88888888611531565b92509250925061104b8282611625565b829350505050949350505050565b600073ffffffffffffffffffffffffffffffffffffffff168473ffffffffffffffffffffffffffffffffffffffff16036110cb5760006040517fe602df050000000000000000000000000000000000000000000000000000000081526004016110c29190611f74565b60405180910390fd5b600073ffffffffffffffffffffffffffffffffffffffff168373ffffffffffffffffffffffffffffffffffffffff160361113d5760006040517f94280d620000000000000000000000000000000000000000000000000000000081526004016111349190611f74565b60405180910390fd5b81600160008673ffffffffffffffffffffffffffffffffffffffff1673ffffffffffffffffffffffffffffffffffffffff16815260200190815260200160002060008573ffffffffffffffffffffffffffffffffffffffff1673ffffffffffffffffffffffffffffffffffffffff16815260200190815260200160002081905550801561122a578273ffffffffffffffffffffffffffffffffffffffff168473ffffffffffffffffffffffffffffffffffffffff167f8c5be1e5ebec7d5bd14f71427d1e84f3dd0314c0f7b2291e5b200ac8c7c3b925846040516112219190611e12565b60405180910390a35b50505050565b61123b838383611789565b60007f000000000000000000000000000000000000000000000000000000000000000090508042101561129a576040517facf75be800000000000000000000000000000000000000000000000000000000815260040160405180910390fd5b600081426112a891906123c5565b9050620151808111156112bc5750506113a5565b600a60008673ffffffffffffffffffffffffffffffffffffffff1673ffffffffffffffffffffffffffffffffffffffff16815260200190815260200160002060009054906101000a900460ff168061135d5750600a60008573ffffffffffffffffffffffffffffffffffffffff1673ffffffffffffffffffffffffffffffffffffffff16815260200190815260200160002060009054906101000a900460ff165b156113695750506113a5565b610e1081101561138b5761137c846119ae565b6113868484611a84565b6113a2565b620151808110156113a1576113a08484611a84565b5b5b50505b505050565b60007f8b73c3c69bb8fe3d512ecc4cf759cc79239f7b179b0ffacaa9a75d522b39400f7f00000000000000000000000000000000000000000000000000000000000000007f000000000000000000000000000000000000000000000000000000000000000046306040516020016114259594939291906123f9565b60405160208183030381529060405280519060200120905090565b606060ff60001b831461145d5761145683611b51565b90506114ea565b81805461146990612275565b80601f016020809104026020016040519081016040528092919081815260200182805461149590612275565b80156114e25780601f106114b7576101008083540402835291602001916114e2565b820191906000526020600020905b8154815290600101906020018083116114c557829003601f168201915b505050505090505b92915050565b60006040517f190100000000000000000000000000000000000000000000000000000000000081528360028201528260228201526042812091505092915050565b60008060007f7fffffffffffffffffffffffffffffff5d576e7357a4501ddfe92f46681b20a08460001c111561157157600060038592509250925061161b565b600060018888888860405160008152602001604052604051611596949392919061244c565b6020604051602081039080840390855afa1580156115b8573d6000803e3d6000fd5b505050602060405103519050600073ffffffffffffffffffffffffffffffffffffffff168173ffffffffffffffffffffffffffffffffffffffff160361160c57600060016000801b9350935093505061161b565b8060008060001b935093509350505b9450945094915050565b6000600381111561163957611638612491565b5b82600381111561164c5761164b612491565b5b0315611785576001600381111561166657611665612491565b5b82600381111561167957611678612491565b5b036116b0576040517ff645eedf00000000000000000000000000000000000000000000000000000000815260040160405180910390fd5b600260038111156116c4576116c3612491565b5b8260038111156116d7576116d6612491565b5b0361171c578060001c6040517ffce698f70000000000000000000000000000000000000000000000000000000081526004016117139190611e12565b60405180910390fd5b60038081111561172f5761172e612491565b5b82600381111561174257611741612491565b5b0361178457806040517fd78bce0c00000000000000000000000000000000000000000000000000000000815260040161177b9190611ed0565b60405180910390fd5b5b5050565b600073ffffffffffffffffffffffffffffffffffffffff168373ffffffffffffffffffffffffffffffffffffffff16036117db5780600260008282546117cf91906124c0565b925050819055506118ae565b60008060008573ffffffffffffffffffffffffffffffffffffffff1673ffffffffffffffffffffffffffffffffffffffff16815260200190815260200160002054905081811015611867578381836040517fe450d38c00000000000000000000000000000000000000000000000000000000815260040161185e9392919061235f565b60405180910390fd5b8181036000808673ffffffffffffffffffffffffffffffffffffffff1673ffffffffffffffffffffffffffffffffffffffff16815260200190815260200160002081905550505b600073ffffffffffffffffffffffffffffffffffffffff168273ffffffffffffffffffffffffffffffffffffffff16036118f75780600260008282540392505081905550611944565b806000808473ffffffffffffffffffffffffffffffffffffffff1673ffffffffffffffffffffffffffffffffffffffff168152602001908152602001600020600082825401925050819055505b8173ffffffffffffffffffffffffffffffffffffffff168373ffffffffffffffffffffffffffffffffffffffff167fddf252ad1be2c89b69c2b068fc378daa952ba7f163c4a11628f55a4df523b3ef836040516119a19190611e12565b60405180910390a3505050565b60007f000000000000000000000000000000000000000000000000000000000000000073ffffffffffffffffffffffffffffffffffffffff166370a08231836040518263ffffffff1660e01b8152600401611a099190611f74565b602060405180830381865afa158015611a26573d6000803e3d6000fd5b505050506040513d601f19601f82011682018060405250810190611a4a9190612509565b03611a81576040517ffd895c2800000000000000000000000000000000000000000000000000000000815260040160405180910390fd5b50565b600960009054906101000a900473ffffffffffffffffffffffffffffffffffffffff1673ffffffffffffffffffffffffffffffffffffffff168273ffffffffffffffffffffffffffffffffffffffff1614611b4d57600081611ae58461069f565b611aef91906124c0565b90507f0000000000000000000000000000000000000000000000000000000000000000811115611b4b576040517ff29d2a0e00000000000000000000000000000000000000000000000000000000815260040160405180910390fd5b505b5050565b60606000611b5e83611bc5565b90506000602067ffffffffffffffff811115611b7d57611b7c6122a6565b5b6040519080825280601f01601f191660200182016040528015611baf5781602001600182028036833780820191505090505b5090508181528360208201528092505050919050565b60008060ff8360001c169050601f811115611c0c576040517fb3512b0c00000000000000000000000000000000000000000000000000000000815260040160405180910390fd5b80915050919050565b600080fd5b600073ffffffffffffffffffffffffffffffffffffffff82169050919050565b6000611c4582611c1a565b9050919050565b611c5581611c3a565b8114611c6057600080fd5b50565b600081359050611c7281611c4c565b92915050565b600060208284031215611c8e57611c8d611c15565b5b6000611c9c84828501611c63565b91505092915050565b600081519050919050565b600082825260208201905092915050565b60005b83811015611cdf578082015181840152602081019050611cc4565b60008484015250505050565b6000601f19601f8301169050919050565b6000611d0782611ca5565b611d118185611cb0565b9350611d21818560208601611cc1565b611d2a81611ceb565b840191505092915050565b60006020820190508181036000830152611d4f8184611cfc565b905092915050565b6000819050919050565b611d6a81611d57565b8114611d7557600080fd5b50565b600081359050611d8781611d61565b92915050565b60008060408385031215611da457611da3611c15565b5b6000611db285828601611c63565b9250506020611dc385828601611d78565b9150509250929050565b60008115159050919050565b611de281611dcd565b82525050565b6000602082019050611dfd6000830184611dd9565b92915050565b611e0c81611d57565b82525050565b6000602082019050611e276000830184611e03565b92915050565b600080600060608486031215611e4657611e45611c15565b5b6000611e5486828701611c63565b9350506020611e6586828701611c63565b9250506040611e7686828701611d78565b9150509250925092565b600060ff82169050919050565b611e9681611e80565b82525050565b6000602082019050611eb16000830184611e8d565b92915050565b6000819050919050565b611eca81611eb7565b82525050565b6000602082019050611ee56000830184611ec1565b92915050565b6000819050919050565b6000611f10611f0b611f0684611c1a565b611eeb565b611c1a565b9050919050565b6000611f2282611ef5565b9050919050565b6000611f3482611f17565b9050919050565b611f4481611f29565b82525050565b6000602082019050611f5f6000830184611f3b565b92915050565b611f6e81611c3a565b82525050565b6000602082019050611f896000830184611f65565b92915050565b60007fff0000000000000000000000000000000000000000000000000000000000000082169050919050565b611fc481611f8f565b82525050565b600081519050919050565b600082825260208201905092915050565b6000819050602082019050919050565b611fff81611d57565b82525050565b60006120118383611ff6565b60208301905092915050565b6000602082019050919050565b600061203582611fca565b61203f8185611fd5565b935061204a83611fe6565b8060005b8381101561207b5781516120628882612005565b975061206d8361201d565b92505060018101905061204e565b5085935050505092915050565b600060e08201905061209d600083018a611fbb565b81810360208301526120af8189611cfc565b905081810360408301526120c38188611cfc565b90506120d26060830187611e03565b6120df6080830186611f65565b6120ec60a0830185611ec1565b81810360c08301526120fe818461202a565b905098975050505050505050565b61211581611e80565b811461212057600080fd5b50565b6000813590506121328161210c565b92915050565b61214181611eb7565b811461214c57600080fd5b50565b60008135905061215e81612138565b92915050565b600080600080600080600060e0888a03121561218357612182611c15565b5b60006121918a828b01611c63565b97505060206121a28a828b01611c63565b96505060406121b38a828b01611d78565b95505060606121c48a828b01611d78565b94505060806121d58a828b01612123565b93505060a06121e68a828b0161214f565b92505060c06121f78a828b0161214f565b91505092959891949750929550565b6000806040838503121561221d5761221c611c15565b5b600061222b85828601611c63565b925050602061223c85828601611c63565b9150509250929050565b7f4e487b7100000000000000000000000000000000000000000000000000000000600052602260045260246000fd5b6000600282049050600182168061228d57607f821691505b6020821081036122a05761229f612246565b5b50919050565b7f4e487b7100000000000000000000000000000000000000000000000000000000600052604160045260246000fd5b600060c0820190506122ea6000830189611ec1565b6122f76020830188611f65565b6123046040830187611f65565b6123116060830186611e03565b61231e6080830185611e03565b61232b60a0830184611e03565b979650505050505050565b600060408201905061234b6000830185611f65565b6123586020830184611f65565b9392505050565b60006060820190506123746000830186611f65565b6123816020830185611e03565b61238e6040830184611e03565b949350505050565b7f4e487b7100000000000000000000000000000000000000000000000000000000600052601160045260246000fd5b60006123d082611d57565b91506123db83611d57565b92508282039050818111156123f3576123f2612396565b5b92915050565b600060a08201905061240e6000830188611ec1565b61241b6020830187611ec1565b6124286040830186611ec1565b6124356060830185611e03565b6124426080830184611f65565b9695505050505050565b60006080820190506124616000830187611ec1565b61246e6020830186611e8d565b61247b6040830185611ec1565b6124886060830184611ec1565b95945050505050565b7f4e487b7100000000000000000000000000000000000000000000000000000000600052602160045260246000fd5b60006124cb82611d57565b91506124d683611d57565b92508282019050808211156124ee576124ed612396565b5b92915050565b60008151905061250381611d61565b92915050565b60006020828403121561251f5761251e611c15565b5b600061252d848285016124f4565b9150509291505056fea264697066735822122015c7ee7e14e81870a635fe6528cf606677bcc4080196077ed558e7908a63b4b064736f6c63430008160033a2646970667358221220c572449428fe9d2f0db73d91860f4a9442a5e1776b44270fc7f70329e507582464736f6c63430008160033",
  "devdoc": {
    "errors": {
      "OwnableInvalidOwner(address)": [
        {
          "details": "The owner is not a valid owner account. (eg. `address(0)`)"
        }
      ],
      "OwnableUnauthorizedAccount(address)": [
        {
          "details": "The caller account is not authorized to perform an operation."
        }
      ]
    },
    "kind": "dev",
    "methods": {
      "owner()": {
        "details": "Returns the address of the current owner."
      },
      "renounceOwnership()": {
        "details": "Leaves the contract without owner. It will not be possible to call `onlyOwner` functions. Can only be called by the current owner. NOTE: Renouncing ownership will leave the contract without an owner, thereby disabling any functionality that is only available to the owner."
      },
      "transferOwnership(address)": {
        "details": "Transfers ownership of the contract to a new account (`newOwner`). Can only be called by the current owner."
      }
    },
    "version": 1
  },
  "userdoc": {
    "kind": "user",
    "methods": {},
    "version": 1
  },
  "storageLayout": {
    "storage": [
      {
        "astId": 8,
        "contract": "contracts/MemeFactory.sol:MemeFactory",
        "label": "_owner",
        "offset": 0,
        "slot": "0",
        "type": "t_address"
      },
      {
        "astId": 3760,
        "contract": "contracts/MemeFactory.sol:MemeFactory",
        "label": "whitelist",
        "offset": 0,
        "slot": "1",
        "type": "t_array(t_address)dyn_storage"
      },
      {
        "astId": 3772,
        "contract": "contracts/MemeFactory.sol:MemeFactory",
        "label": "_pairInfo",
        "offset": 0,
        "slot": "2",
        "type": "t_mapping(t_address,t_struct(LiquidityLock)3767_storage)"
      }
    ],
    "types": {
      "t_address": {
        "encoding": "inplace",
        "label": "address",
        "numberOfBytes": "20"
      },
      "t_array(t_address)dyn_storage": {
        "base": "t_address",
        "encoding": "dynamic_array",
        "label": "address[]",
        "numberOfBytes": "32"
      },
      "t_mapping(t_address,t_struct(LiquidityLock)3767_storage)": {
        "encoding": "mapping",
        "key": "t_address",
        "label": "mapping(address => struct MemeFactory.LiquidityLock)",
        "numberOfBytes": "32",
        "value": "t_struct(LiquidityLock)3767_storage"
      },
      "t_struct(LiquidityLock)3767_storage": {
        "encoding": "inplace",
        "label": "struct MemeFactory.LiquidityLock",
        "members": [
          {
            "astId": 3762,
            "contract": "contracts/MemeFactory.sol:MemeFactory",
            "label": "owner",
            "offset": 0,
            "slot": "0",
            "type": "t_address"
          },
          {
            "astId": 3764,
            "contract": "contracts/MemeFactory.sol:MemeFactory",
            "label": "pair",
            "offset": 0,
            "slot": "1",
            "type": "t_address"
          },
          {
            "astId": 3766,
            "contract": "contracts/MemeFactory.sol:MemeFactory",
            "label": "unlocksAt",
            "offset": 0,
            "slot": "2",
            "type": "t_uint256"
          }
        ],
        "numberOfBytes": "96"
      },
      "t_uint256": {
        "encoding": "inplace",
        "label": "uint256",
        "numberOfBytes": "32"
      }
    }
  }
}